:020000040800F2
:1000000080100020BD010008DD3B0008AD3800086D
:10001000BD3B000809220008A547000800000000B9
:100020000000000000000000000000002740000861
:100030005B22000800000000254000080141000884
:10004000D7010008D7010008D7010008D701000830
:10005000D7010008D7010008D7010008D701000820
:10006000D7010008D7010008D7010008D701000810
:100070000D22000819220008D7010008D701000846
:1000800025220008D7010008D7010008D701000881
:10009000D7010008D7010008D7010008D7010008E0
:1000A000D7010008D7010008D7010008D7010008D0
:1000B000D7010008D7010008D7010008D7010008C0
:1000C000D7010008D7010008D7010008D7010008B0
:1000D000D7010008D70100084D47000879470008FC
:1000E000D7010008D7010008D701000800F002F886
:1000F00000F054F80AA090E8000C82448344AAF16E
:100100000107DA4501D100F049F8AFF2090EBAE86B
:100110000F0013F0010F18BFFB1A43F0010318473B
:100120002C8A00004C8A0000103A24BF78C878C19D
:10013000FAD8520724BF30C830C144BF04680C60ED
:10014000704700000023002400250026103A28BF35
:1001500078C1FBD8520728BF30C148BF0B60704739
:10016000662907F01180642900F0E68000207047BE
:100170001FB59DE8030000F019FA00F035FD0400FA
:100180000020002106F088F8401C6060002000215B
:1001900006F06CF8E0601FBD10B510BD00F06EFEFB
:1001A0001146FFF7E5FF05F045F801F011F903B43A
:1001B000FFF7F2FF03BC01F081F900000948804716
:1001C00009480047FEE7FEE7FEE7FEE7FEE7FEE739
:1001D000FEE7FEE7FEE7FEE704480549054A064B51
:1001E0007047000061410008ED000008800A00200F
:1001F00080100020800C0020800C002070B5064686
:1002000000F0B8F9056806F10B0020F00704B442CD
:100210009CBF002070BD2B466A68BAB11068A0422E
:1002200010D304F1080188423CBF5068586007D3DE
:100230005168101941601168091B01605860146011
:10024000101D70BD13465268002AE7D1214628468A
:1002500000F098F90028DED170BD70B50446051F86
:1002600000F088F90068002C14BF446870BD002CB1
:1002700018BFAC423CBF20466468F8D301680A1836
:10028000AA4218BF456003D12A680546114401609F
:1002900028684119A1421CBF6C6070BD616869602B
:1002A00021680844286070BD0FB41CB5074B06AA2E
:1002B0007B4469460090059800F027FC00206946C1
:1002C00000F036FC1CBC5DF814FB00007D0800004B
:1002D0002DE9F0410E460446002020622046E168E8
:1002E000884730B3252805D0D4E901219047206AFA
:1002F000401CF2E7E168204600278847050018D037
:10030000A5F14100192802D820354FF40067324684
:10031000294620462760FFF723FF40B1012804D07B
:10032000F61D26F007060836D8E7361DD6E728461C
:10033000DAE7206ABDE8F0812DE9F04106460024A5
:1003400010687529314616A510D0AFF3008000283B
:1003500002DA404213A507E031688A0701D512A5E9
:1003600002E0490704D511A5012401E0AFF30080A4
:1003700000210A2206F1240709E0B0FBF2FCB0FBE1
:10038000F2F302FB1C00303078541846491C002858
:10039000F3D123462A463046BDE8F04100F047B984
:1003A000000000002D0000002B00000020000000D5
:1003B00010B5431C02E010F8011B71B18107FAD19E
:1003C0004FF0013202C88C1A8C4314EAC211F9D0E2
:1003D000C01A0A0603D0C01E10BDC01A10BD0A0400
:1003E00001D0801E10BD0902FCD0401E10BD032AA2
:1003F00040F2308010F0030C00F0158011F8013B42
:10040000BCF1020F624498BF11F801CB00F8013B28
:1004100038BF11F8013BA2F1040298BF00F801CBEC
:1004200038BF00F8013B11F0030300F02580083AC3
:10043000C0F0088051F8043B083A51F804CBA0E81A
:100440000810F5E7121D5CBF51F8043B40F8043B6F
:10045000AFF30080D20724BF11F8013B11F801CBA4
:1004600048BF11F8012B24BF00F8013B00F801CB75
:1004700048BF00F8012B704710B5203AC0F00B8040
:10048000B1E81850203AA0E81850B1E81850A0E898
:100490001850BFF4F5AF5FEA027C24BFB1E81850F2
:1004A000A0E8185044BF18C918C0BDE810405FEA62
:1004B000827C24BF51F8043B40F8043B08BF7047DE
:1004C000D20728BF31F8023B48BF11F8012B28BFE3
:1004D00020F8023B48BF00F8012B70474FF00002A4
:1004E0000429C0F0128010F0030C00F01B80CCF146
:1004F000040CBCF1020F18BF00F8012BA8BF20F8B4
:10050000022BA1EB0C0100F00DB85FEAC17C24BF07
:1005100000F8012B00F8012B48BF00F8012B7047B1
:100520004FF0000200B5134694469646203922BF8C
:10053000A0E80C50A0E80C50B1F12001BFF4F7AFD7
:10054000090728BFA0E80C5048BF0CC05DF804EBB9
:10055000890028BF40F8042B08BF704748BF20F827
:10056000022B11F0804F18BF00F8012B7047704725
:100570007047704700487047280A0020704770474E
:100580007047704738B504460A4600206946AFF305
:100590000080002808BF38BD02460099204600F0C0
:1005A0002BFB012038BD012000F060BCF8B5AFF393
:1005B0000080054600200C46102000BF0646A81902
:1005C000A0420DD9324669460020AFF300800700F3
:1005D00008BF00F04BFC0098A04218BF0546C419A4
:1005E000FFF7C8FF05600746F01D20F00700461919
:1005F000284600F00AF8B44208BFF8BDA21B3146F5
:100600003868BDE8F84000F0F7BA00210160C0E9A1
:10061000011070471020704710B500F0E9FA00682B
:1006200010BD10B5044600F0E3FA046010BD2DE9DA
:10063000F0470D4699469246044600F124080168A9
:10064000880604D5E06921F01001216000E0012056
:10065000A84201DD471B00E00027A1697A1902EBDF
:100660000900081AA0612078C00602D42046AFF322
:100670000080002608E0D4E901211AF8060090471E
:10068000206A401C761C20624E45F4DB2078C006B0
:100690000AD52046AFF3008006E0D4E901213020DE
:1006A0009047206A401C2062381EA7F10107F4DC45
:1006B00007E0D4E9012118F805009047206A401CA2
:1006C0002062281EA5F10105F3DC2046AFF300806F
:1006D0002078000602D50220BDE8F0870120FBE764
:1006E00070472DE9FF4F0C461E464FF0FF378BB089
:1006F000D2E90001DDF860800A908A46C1F30A550C
:1007000005B93D46002108464FF00000BAF1000F40
:1007100000F4400005DA00EB80004FF4400101EAEC
:1007200050004FEA9059B9F1010F00DDB9460A981F
:1007300050EA4A000ED044F61050A5F2FF3545436A
:100740002F14B8F1000F1ED07542291E1EDDC9F10D
:1007500000021CE0B8F1010F4FF0000001D0302181
:1007600003E0F24305E02154401CB042FBDB30467D
:100770000022002121540B99C1F80880C1E9002012
:100780000FB0BDE8F08FBD1B6D1CDEE74A4600DAF6
:10079000694206A800F0F8FA06AB93E8070003AB3D
:1007A00083E8070050460A9901F0F9F88DE8070040
:1007B000A0F500501F3800900398002D0ADD42F28A
:1007C0001F014A460844002303A90390684601F02C
:1007D000A5FB09E0A0F500504A461F38002303A9F5
:1007E0000390684601F0C4FB8DE807000004000C8C
:1007F00003D04FF0FF30410800E01046B8F1000F81
:1008000003D00022009215461EE0751E05D400F0AC
:100810000DFA303262556D1EF9D5B34601220843F8
:1008200002D000227F1C04E02078302801D1002271
:100830007F1E002A099784D01DE0112D07DA00F0F1
:10084000F5F9303262556D1C50EA0102F5D10843CA
:1008500002D00098C8B10EE00021681E05E0235CBC
:10086000625C63542254401E491C8142F7DBAB4654
:10087000A81B401E0990002004F80B000B98099A51
:10088000C0F80880C0E9002B7AE711264FF0000875
:1008900057E72DE9F04F88460446D21D22F00701A4
:1008A00091B0D1E90001CDE90A0103F095FF0246BC
:1008B0000B98C00F01D02D2007E02068810701D5DB
:1008C0002B2002E0202101EAC000032A099001D078
:1008D000072A05DB03464146204600F0F5F90BE107
:1008E0002078800601D5E06900E00620B8F1650FA8
:1008F000814606D0B8F1660F18D0B8F1670F70D1F5
:1009000031E00020B9F1110F009001DB112301E06B
:1009100009F101030AAA01A90CA8FFF7E2FEDDE92B
:100920000C70002609F10105834647E001204B4683
:1009300000904FF000470AAA01A90CA8FFF7D1FECA
:10094000DDE90DB00C995D46002610B909F10100F2
:100950000D18B9EB050003D4C0F1FF3609F101050C
:10096000A5EB09002BE0B9F1010F01DA4FF0010905
:100970000020B9F1110F0090484601DD112300E07D
:1009800003460AAA01A90CA8FFF7ABFEDDE90C702B
:100990004D4600268346207800070AD4AB4500DA8E
:1009A0005D4601A8012D04DD411911F8011C302913
:1009B00007D04F4502DA17F1040F04DA012082460E
:1009C0000FE06D1EEEE7002F02DCED1B3E4403E05E
:1009D000781CA84200DD7D1CB81B00F1010A4FF015
:1009E00000472078000703D4AA4501DB4FF0FF3A07
:1009F0000021B7F1004F0DF143088DF8431024D0CA
:100A000002202B23002F01DA7F422D230A21021E10
:100A1000A0F1010000DC5FB197FBF1FC97FBF1F264
:100A200001FB1C7C17460CF1300C08F801CDEEE7F9
:100A3000A8F1010003702188090501D5452100E0D6
:100A40006521A0F1010800F8011C09980FA9A1EB8C
:100A50000807FF1D00B10120411901EBEA70A169EF
:100A60003844081A401EA0612078C00602D42046EF
:100A7000AFF30080099828B1D4E901219047206A9A
:100A8000401C20622078C00622D52046AFF30080AB
:100A90001EE0002E04DBB34502DD01A8805D00E00E
:100AA0003020D4E901219047206A401C2062761C46
:100AB000AAF101005FEA000A0AD100F095F8C068C7
:100AC0000168405CD4E901219047206A401C206203
:100AD000281EA5F10105DCDC07E0D4E9012118F8A6
:100AE000010B9047206A401C2062381EA7F10107C5
:100AF000F3DC2046AFF30080032011B041E6000094
:100B000001694A1C02610878704700B58FB0CDE9D1
:100B100001310021059105497944CDE903101146C1
:100B20006846FFF7D5FB0FB000BD0000E5FFFFFFF3
:100B30000A6802F8010B0A60704700000FB4002336
:100B400000B589B00CA900910B99CB60214B7B4477
:100B50000693214B7B44079304236FF00042CDE9B9
:100B600001321E4A7A446B4608920246002006F083
:100B70006DFB09B05DF814FB70B506464FF0FF3011
:100B800015460C46324686B00091CDE90101694612
:100B90000020049004A8FFF7D1FF02460498211812
:100BA00025B108B1084600E02046286004980028D6
:100BB0000DD0002A02DD0098884208D03246081B7A
:100BC00069460094CDE9010404A8FFF7B7FF06B019
:100BD00070BD0000F70100000F0200004F0100008F
:100BE00000487047200A002000487047400A002053
:100BF00000487047200A0020034640688C460028C1
:100C000018BF88423CBF03464068F8D318681844B0
:100C1000884207D00CF1030020F00700001D411AA4
:100C2000521A0146081D0A60FFF717BB30B5B0F134
:100C30000A024FEA900E71F100034EEA817EB0EB9A
:100C40000E0061EB91014FEA101E4EEA017E10EB9F
:100C50000E0041EB11114FEA102E4EEA016E10EB1F
:100C60000E0041EB11214FEA104E4EEA014E10EBFF
:100C70000E0041EB1141401841F100014FEAD00054
:100C800040EA41704FEAD10110EB80054FEA810440
:100C900044EA907444EB01046D1944EB0404521BC4
:100CA000A3414FF0000348BF0A3200D530BD401CBD
:100CB00041F1000130BD10B5044600F005F90068AF
:100CC000005D00F0010010BD2DE9F0411F46044613
:100CD00003260168072A01F4006004DB08B116A5A9
:100CE00005E016A503E008B115A500E015A521F063
:100CF00010002060A069C01EA0610FB1401EA0615D
:100D00002046AFF300804FB1D4E901213846904727
:100D1000206A401C2062C01C206206E0206AFAE7BC
:100D2000D4E9012115F8010B9047761EF8D2204630
:100D3000AFF30080BDE8F0814E414E006E616E0061
:100D4000494E4600696E6600426842B1016811F87A
:100D5000013B23B1521EC0E9001218467047012121
:100D6000C160881E704742685AB1C368016843B9C0
:100D700083688B4205D0491E521CC0E90012002036
:100D800070474FF0FF3070472DE9F0478146164617
:100D90008AB0354878440DC88DE80D003248784453
:100DA000801C03AC0DC884E80D0041F69B3008445C
:100DB000372190FBF1F290FBF1F5A5F1800501FBE5
:100DC00012041B3C02D56442012000E00020DFF841
:100DD00098A080460027FA44AAF1BE0A0EE0E00778
:100DE0000AD03246684607EB470101230AEB81012E
:100DF00001F0BEF88DE8070064107F1C002CEED1D6
:100E0000194F7F44AE3F19E0E80715D007EB0410F7
:100E10000DF1180A90E80E008AE80E00C068F04252
:100E200001D1981908903246012306A903A801F0C0
:100E30009FF803AB83E807006D10641C002DE3D11D
:100E40004FF0010332466946B8F1000F03A802D003
:100E500001F064F801E001F08BF8C9E90001C9F87C
:100E600008200AB0BDE8F0879C7D000010B500F0B6
:100E7000BDFABDE8104000F0B4BA70477546FFF700
:100E8000AFFEAE4605006946534620F00700854692
:100E900018B020B5FFF7A0F9BDE820404FF00006DC
:100EA0004FF000074FF000084FF0000B21F0070152
:100EB000AC46ACE8C009ACE8C009ACE8C009ACE895
:100EC000C0098D467047000010B5FFF78DFE001D6C
:100ED00010BD00BFC55300002DE9FF4F06468BB083
:100EE0000878FF2806D0491C2D2805D000244FF093
:100EF000000908E000200CE00124F8E709EB890371
:100F0000491C00EB43090878FF28F7D114B1C9F157
:100F100000008146107800252C46AA4629462D2837
:100F200001D02B2804D1521C2D2813D0002082463A
:100F30008B461078FF280FD04FF0000C0A21521C6E
:100F4000A5FB017804FB018105FB0C11C5194BEBD6
:100F50000104EEE70120EAE7002108464FF0000017
:100F6000BAF1000F02D000EB80004008C0F38157B7
:100F7000012F01DD4FF0FF370E9955EA040009EB10
:100F800001080BD04FF0020918F5FA7F16DA4FEA84
:100F9000CA70002F706008DD012007E04FEACA70B8
:100FA000C6E900B00FB0BDE8F08F00203060FFF759
:100FB0001FFEC0F800901821084616E0B8F5FA7F29
:100FC00018DD002F02DAF748784401E0F64878444B
:100FD000D0E90010C6E9001040EACA707060FFF75F
:100FE00007FEC0F80090142108460FB0BDE8F04F8E
:100FF00006F0C7B8002108464FF00000B8F1000124
:10100000099002DAC7F1000200E03A4601DAC8F1BD
:10101000000106A8FFF7B8FE06AB93E8070003AB94
:1010200083E8070044F23E005BEA04010090584662
:1010300004D144F21E012C465D460091210C0904A6
:10104000014306D10099240444EA15442D041039C3
:10105000009104F07F41014306D10099240244EA43
:1010600015642D020839009104F07041014306D146
:101070000099240144EA15742D01091F009104F020
:101080004041014306D10099A40044EA9574AD00A3
:10109000891E009104F00041084304D100986D19A5
:1010A0006441401E00904FF001033A466846B8F193
:1010B000000FCDE9014503A902DD00F06EFF01E05C
:1010C00000F041FFBAF1000F04460D4601D084F054
:1010D0000044002108464FF00000099940F2FF77D4
:1010E000484010F00C0F07D124F00040284303D0F3
:1010F000C4F30A50B84212D1FFF77AFDC0F800904D
:10110000C4F30A50B8420AD1A8487844D0E9001084
:10111000C6E9001004F000410843706042E7C6E9E8
:1011200000543FE72DE9FF4F1F464FF0000A4FF0F4
:10113000FF38454691B0D7E90146CDF83CA0FFF70E
:1011400053FDC0680168405C1090B96912986D1C2D
:101150008847396A814688470028F6D1B9F1FF3FB0
:101160000AD0002E24F4D06411DDB9F12B0F08D081
:10117000B9F12D0F0BD102E0404615B013E744F44E
:101180008064B96912986D1C8847761E8146600597
:1011900004A901D52D2000E02B20002E01F1010B28
:1011A0000DF130088DF810003FDDB9F1690F08D05E
:1011B000B9F1490F05D0B9F16E0F02D0B9F14E0F58
:1011C0001CD13B4601A8009580E85002DDE91212CF
:1011D0006FF0020006F03EF8C11CCED10EE0B969F6
:1011E00012986D1C884781461398761E44F400744B
:1011F00005600F98401C002E0F9016DDB9F1300FDE
:10120000EDD0B9F1780F02D0B9F1580F0DD10F9888
:1012100001280AD13B46CDE90054DDE91212001F36
:10122000029606F015F8C11CA7D1109989453ED148
:1012300044F0800406E01399681CAAF1010A44F402
:1012400000740860B9696D1C1298761E88473028B2
:101250008146F0D02BE01099894505D1200603D4B2
:10126000761E44F0800418E0484603F0B3FB08B350
:10127000761E0DF123018B4544F4007408D2A9F1C8
:1012800030000BF8010B200607D5AAF1010003E09E
:10129000200602D40AF101008246A00502D5139966
:1012A000681C0860B96912986D1C88478146002E39
:1012B000D1DC53E0002E51DDB9F1650F02D0B9F158
:1012C000450F4BD1A00549D5B9696D1C1298761E02
:1012D00024F440748847002E81460CDD2B2804D06E
:1012E000B9F12D0F07D144F48074B96912986D1CBF
:1012F0008847761E8146E00501D52D2100E02B218F
:1013000008F8011BCDF8008021E0761E0DF13901AF
:10131000884544F400740CD2A9F1300010F0FF00AD
:1013200088F8000002D10099884509D908F1010820
:1013300006E0E00501D51E4801E042F20F7082464A
:10134000B96912986D1C8847814613980560002E74
:1013500004DD484603F03EFB0028D6D1F969129817
:101360008847FF2053468BF8000088F800000020D3
:101370000A900B9004AA0CA90AA8FFF7ADFDA005DE
:1013800002D46FF00100F8E614F0240F12D0E00749
:101390001CD13868DDE90A12031D3B600068C0E912
:1013A000001213E0A87B00009A7B00005E7A000028
:1013B000F1D8FFFF0AA9684603F09AFAE00705D1C1
:1013C0003868009A011D3960006802602846D4E63A
:1013D00010B50446AFF300802046BDE81040FEF78C
:1013E000E6BE002801D000F069B8704710B50128AA
:1013F00005D0002103A000F067F8012010BD09A16D
:10140000F8E7000053494752544D454D3A204F7577
:1014100074206F662068656170206D656D6F7279EC
:10142000000000003A2048656170206D656D6F72A4
:101430007920636F72727570746564004FF0013CBF
:1014400050F8042B51F8043B9A4221D1A2EB0C0333
:10145000934313EACC1317D150F8042B51F8043BF3
:101460009A4215D1A2EB0C03934313EACC130BD190
:1014700050F8042B51F8043B9A4209D1A2EB0C031B
:10148000934313EACC13DBD04FF00000704700BF4A
:10149000D01A01BAB1FA81F101F0180122FA01F073
:1014A000CB40C1F12001DBB2C0B2C01A2CFA01F36B
:1014B000D11A914311EAC311E6D1704701491820AE
:1014C000ABBEFEE72600020070B505460C460A20BA
:1014D00000E06D1C00F011F835B128780028F8D133
:1014E00002E0641C00F009F814B120780028F8D15B
:1014F000BDE870400A20AFF3008008B569468DF85A
:1015000000000320ABBE08BD2DE9FF4F1F464FF082
:101510003C0987B04FF00042DDE9141001F10108E9
:10152000DDF858A002EA4050039000200590834661
:10153000054604460490B969461E08988847AAF1F2
:10154000010A0290BAF1000F3BDD02982E2815D057
:10155000102100F016FA00282EDB4FF0010B059940
:10156000014317D0B9F1000F0BDB4A46C11700F059
:10157000F5F905430C43A9F1040905E001200490A5
:101580000BE008B145F0010501200590049820B951
:10159000361D02E0049800B1361FB969089808F1B9
:1015A00001088847BBF1000FAAF1010A0290C9D0D7
:1015B0000999C1F80080C5E70298702808D0502822
:1015C00006D0F96908988847BBF1000F14D04FE0A6
:1015D000002002900120BBF1000F049009D0B969EE
:1015E000089808F101088847AAF10109B9F1000F2C
:1015F00007DCF969089888476FF001000BB0BDE877
:10160000F08F2B2804D02D280CD14FF0FF30049000
:10161000B969089808F101088847A9F10109B9F1E9
:10162000000FE6DD411CE4D00A2100F0AAF90028F1
:10163000DFDB029908F1010801EB810100EB4100B9
:101640000290B969089888470A2100F09AF9099A26
:10165000A9F10109B9F1000FC2F8008001DD0028ED
:10166000E7DAF969089888470499029800FB01664F
:1016700055EA040004D004F04041090002D006E01D
:10168000039898E0A40044EA9574AD00B61E04F0F7
:101690000041080002D16D196441761E159810F0C2
:1016A000240F03D04FF00B095C4803E04FF02809EA
:1016B0006FF07D008246564507DAAAEB06018944A1
:1016C000B9F1410F01DD4FF0410901200021A9F1DD
:1016D000010200F043F9024628400B46214008432E
:1016E00001D0012100E00021501E029143F1FF31A1
:1016F00028402140084301D0012000E00020029949
:10170000834651EA0B014FD0002108464FF00000FC
:10171000039900F4400039B100EB80004FF4400120
:1017200000EBD07001EA60008015012802DD4FF067
:10173000FF3000E013D0401C36D0029860B3BBF1FC
:10174000000F0CD14A460120002100F007F9284083
:101750002140084301D0012000E00020E0B1012039
:101760004A46002100F0FAF8034640190A46614152
:101770002D1A8C4111D3B9F1400F09DD159810F0E5
:10178000240F02D0AAF1340603E0AAF1170600E004
:10179000761C00254FF0004406E05B1E42F1FF324C
:1017A00020EA030521EA0204CAF10100B04206DA88
:1017B0001B49039808430190002000900EE0039A13
:1017C000C4F3D321E80A0A43164940EA44500A43C5
:1017D0003146CDE90002684603F0F1F8159810F0A3
:1017E000240F0BD01598C00715D13868DDE9001219
:1017F000031D3B600068C0E900120CE002A86946C6
:1018000003F076F81598C00705D13868029A011DD3
:101810003960006802604046F0E6000002FCFFFF0D
:101820000000F07F0000F03F2DE9FF4F92461D467B
:1018300085B04FF00041DDE9124BDDE914727F1EE7
:1018400001EA4B50414940F0FF4940EA01080021BC
:1018500022F020004928049102D04E2828D04CE0E4
:101860003BA0012607C88DE80700A9690698641CFB
:1018700088477F1E014606D41DF8060018B121F0E6
:10188000200181420BD0E96906988847032E34D0A5
:10189000082E32D06FF0010009B0BDE8F08F761C41
:1018A000032E01D0082EE0D1601CCAF80000DCE74E
:1018B000A9690698641C88477F1E2AD420F020005E
:1018C000412826D1A9690698641C88477F1E20D428
:1018D00020F020004E281CD1A9690698641C884776
:1018E0007F1E48F4002849F48009CAF8004001D45A
:1018F000282806D0E969069888475FEACB7012D09D
:1019000022E0A9690698641C88477F1E01D400283C
:1019100003DAE96906988847BCE72928F1D1641CF5
:10192000CAF80040E9E71BF0240F07D028680499A3
:10193000031D2B600068C0E9001805E02868021D3F
:101940002A600068C0F800902046A5E70000F07FFC
:10195000494E46494E49545900000000B2F1200357
:101960000AD5C2F1200301FA02F120FA03F300FACA
:1019700002F041EA0301704700FA03F14FF0000062
:1019800070473A2800D2303820F02002412A01D393
:10199000A2F13700884201D34FF0FF3070475FEA71
:1019A000400C08BF91F0000F4FEA8C234FEAC12290
:1019B00043EA51514FEA1C5018BF00F5F0404FEA7E
:1019C000300018BF41F000415FEA6C5C00F02980F4
:1019D000BCF1FF3F08BF40F080407047130C06BFCA
:1019E00012044FF0100C4FF0000C130E04BF120243
:1019F0000CF1080C130F04BF12010CF1040C930F2F
:101A000004BF92000CF1020CD30F04BF52000CF182
:101A1000010C11464FF00002A0F11F00A0EB0C00DA
:101A2000704711F0004F08BF704731F000413FF49C
:101A3000D5AF0B0C06BF09044FF0100C4FF0000C93
:101A40000B0E04BF09020CF1080C0B0F04BF0901B7
:101A50000CF1040C8B0F04BF89000CF1020CCB0FAE
:101A600004BF49000CF1010CCCF12003A0EB0C00E9
:101A700022FA03F302FA0CF241EA030100F1010039
:101A8000704720F07F4C80EA030023F07F47ACEBE7
:101A9000070303F57C5300F0004003F1FF032DE939
:101AA00080494FEA154B09B44FEA144325EA0B4E1F
:101AB00024EA03480FF2042606EB132749083E7870
:101AC0005FEA320203FB0667C7F5000707FB06F66D
:101AD0004FEA54374FEAD64606F1020607FB066C7A
:101AE000CCF1005C4FEA1C472CEA074C07FB06F4DC
:101AF0000CFB06F504EB15464FEA961634BF0020A2
:101B00004FF000404FEAD13706FB07FC4FEA1C4C70
:101B10000CFB0BF7D21B03FB0CF761EB07010CFB73
:101B20000EF7B0EB074072EB17420CFB08F734BF1F
:101B3000A2EB0742B2EB074261EB17414FEA0C44BC
:101B40004FEA910706FB07FC4FEA1C4C0CFB0BF716
:101B5000B0EBC74072EB573203FB0CF734BFA2EB7C
:101B6000C742B2EBC74261EB57310CFB0EF7B0EB4B
:101B7000C70072EB57720CFB08F734BFA2EBC70229
:101B8000B2EBC70261EB5771039F4FEA816141EAF3
:101B9000921104EBCC044FEAD1374FEA826206FB84
:101BA00007FC42EA90124FEA80604FEA1C4C0CFBA3
:101BB0000BF7D21B03FB0CF761EB07010CFB0EF7D5
:101BC000B0EB074072EB17420CFB08F734BFA2EBF7
:101BD0000742B2EB074261EB17414FEA8C554FEADF
:101BE000910704EB9C2406FB07FC4FEA1C4C0CFB02
:101BF0000BF7B0EBC74072EB573203FB0CF734BF67
:101C0000A2EBC742B2EBC74261EB57310CFB0EF7B8
:101C1000B0EBC70072EB57720CFB08F734BFA2EBB6
:101C2000C702B2EBC70261EB577115EB4C254FEAC7
:101C3000816141EA92114FEA82624FEAD13742EA6A
:101C4000901206FB07FC44F100044FEA80604FEA63
:101C50001C4C0CFB0BF7D21B03FB0CF761EB0701D1
:101C60000CFB0EF7B0EB074072EB17420CFB08F7CA
:101C700034BFA2EB0742B2EB074261EB174115EB11
:101C80001C154FEA813141EA92414FEA823242EA21
:101C900090424FEA80304FEA0C7644F1000448EA63
:101CA00003434EEA0B484FF0000EB2EB080C71EB09
:101CB000030724BF624639464EEB0E0E4FF0000B71
:101CC0000018524149414BEB0B0BB2EB080C71EB86
:101CD00003077BF1000B24BF624639464EEB0E0E24
:101CE0004FF0000B0018524149414BEB0B0BB2EB8C
:101CF000080C71EB03077BF1000B24BF62463946E9
:101D00004EEB0E0E51EA020718BF46F0010616EB25
:101D10000E7655F1000254F1000103D5BDE88901AA
:101D2000BDE80088BDE88901BDE80048B619524108
:101D300041EB0101A3F10103704780807F7E7D7C30
:101D40007B7A7978777676757473727171706F6E4D
:101D50006E6D6C6C6B6A6A696868676666656464F8
:101D6000636362616160605F5F5E5E5D5D5C5C5B82
:101D70005B5A5A59595858575756565555555454F1
:101D8000535352525251515050504F4F4F4E4E4D4F
:101D90004D4D4C4C4C4B4B4B4A4A4A49494948489B
:101DA00048474747474646464545454444444443DB
:101DB00043434342424242414141000046EA064613
:101DC000A3F570534FEA164646EA42564FEAD2222E
:101DD00042EA415210B54FEAD121A3F1010300F0CC
:101DE0002FF820F0004000F1020C00F0004701EB5A
:101DF00000501146BCF5006F40EA070000D210BD4C
:101E0000BAF1000F0AD01CB503B44FF004004FF034
:101E100004014FF000000FBCBDE810404FF000017E
:101E2000BBF1010FB9BF04484FF0FF310348002157
:101E300040EA070010BD00BFFFFFEF7F0000F07F0A
:101E4000002B9C4630D477002BD01CB54FEA3707C7
:101E500003B44FF010004FF01001BAF1000F06D09C
:101E6000BCF1000FDCBF40F0080040F008014FF06B
:101E700000000FBCBDE810400BF1010BBBF1010FDE
:101E800008BF5FEA170722BF12F1010211F1010139
:101E90004FF0004143F1000300F0004043EA00002E
:101EA0007047F9D35708D0E746EA064613F1400FCA
:101EB0004FEA16461FDD13F1200FDFBF16430A4617
:101EC000002120335B42BED0C3F1200746EA06461C
:101ED00002FA07F74FEA164646EA0706C3F120075B
:101EE00022FA03F201FA07F721FA03F14FF0000397
:101EF00042EA0702A7E746EA020646EA06464FEA32
:101F0000164646EA0106BCBF46EA0646360C4FF0C6
:101F100000034FF000024FF0000194E72DE9804CE0
:101F20009A46934670B491E8380007C831EA400CED
:101F300048BF34EA430C03D5FFF7A3FDFFF780FF4A
:101F4000F0BCBDE8008C2DE9804C9A46934670B4F5
:101F500091E8380007C831EA400C48BF34EA430C26
:101F600003D5FFF78EFDFFF729FFF0BCBDE8008C1D
:101F70002DE9804C9A46934670B491E8380007C822
:101F800010F0804F08BF13F0804F03D100F01AF813
:101F9000FFF756FFF0BCBDE8008C2DE9804C9A4657
:101FA000934670B491E8380007C810F0804F08BF1E
:101FB00013F0804F03D100F005F8FFF7FFFEF0BCEF
:101FC000BDE8008C20F07F4780EA030023F07F4CBF
:101FD00007EB0C03A3F57C5300F00040A3F1FE03D4
:101FE00092F0000F00F0B38095F0000F00F07780C2
:101FF0002DE901494FEA11404FEA144621EA004811
:1020000000FB06FC24EA064708FB06F607FB08F877
:1020100000FB07F718EB06484CEB164C4FEA124B47
:1020200018EB07484FEA15464CEB174022EA0B4ED7
:102030000BFB06FC25EA06470EFB06F607FB0EFE29
:102040000BFB07F71EEB064E4CEB164C4FF0000651
:102050001EEB074E4CEB174B18EB0B0840F1000042
:1020600018EB0E0B58EB000840F100008F1A4FF0F0
:1020700000013CBFC943661B14BFB5EB040C002133
:102080003CBFC943F61B4FEA17444EEA8E0E27EABF
:1020900004454FEA1C4704FB07622CEA074C05FB8A
:1020A00007F70CFB05F604FB0CFC16EB074642EBAE
:1020B000174216EB0C4642EB1C421BEB060658EB94
:1020C0000202414146EA9E0601D5BDE80189B619E2
:1020D000524141EB0101A3F10103BDE801894FEA3F
:1020E00014454FEA114724EA054621EA074C05FB4F
:1020F00007F406FB07F70CFB06F105FB0CFC11EBE4
:10210000074144EB17444FEA124711EB0C4144EBF3
:102110001C4422EA074C05FB07F206FB07F70CFB01
:1021200006F605FB0CFC16EB074642EB174216EBD6
:102130000C4642EB1C456A1854F1000148BF704739
:10214000B619524141EB0101A3F10103704795F02B
:10215000000F37D04FEA11424FEA144721EA0246F6
:1021600024EA074C02FB07F106FB07F70CFB06F419
:1021700002FB0CFC14EB074441EB17414FEA1547F7
:1021800014EB0C4441EB1C4125EA074C02FB07F51C
:1021900006FB07F70CFB06F602FB0CFC16EB0746EA
:1021A00045EB174516EB0C4645EB1C42121951F155
:1021B000000148BF7047B619524141EB0101A3F13C
:1021C000010370474FEA14454FEA114724EA0546D8
:1021D00021EA074C05FB07F106FB07F70CFB06F2AB
:1021E0004FF0000605FB0CFC12EB074241EB1741D8
:1021F00012EB0C4251EB1C4148BF7047921841EB67
:102200000101A3F101037047FEE70000014800F05F
:1022100097B80000CC020020014800F091B80000FF
:1022200088020020014800F08BB800004402002022
:1022300030B590F840500124AC40C56B6C60046828
:1022400063604368102B036803D099600068C26024
:1022500030BD9A600068C16030BD704772B6FEE75D
:1022600010B590F821100022022905D004218163C5
:1022700080F82020012010BD01680B6823F00E03B8
:102280000B6001680B6823F001030B6090F840308D
:10229000012404FA03F1C36B596080F8214080F8EF
:1022A0002020104610BD000010B590F82110002429
:1022B000022903D00421816301243DE001680A68FA
:1022C00022F00E020A6001680A6822F001020A6028
:1022D0001A4A0168914201D1012121E0174A1432C2
:1022E000914201D110211BE0144A2832914201D1C0
:1022F000891515E0114A3C32914201D189140FE051
:102300000E4A5032914202D14FF4803108E00B4A1C
:102310006432914202D14FF4801101E04FF080719C
:10232000064A083A5160012180F82110002180F806
:102330002010416B01B18847204610BD08000240C3
:102340002DE9F05FC16B0B6801680A68046C4FF0FF
:10235000040C0CFA04FC4A4DDFF828A14A4E4B4FFE
:10236000DFF82CB1DFF82CE11CEA030F2DD05FEA77
:10237000427C2AD50A68920603D40A6822F0040235
:102380000A600168A94201D1042119E0514501D137
:10239000402115E0B14202D14FF4806110E0B94212
:1023A00002D14FF480410BE0594502D14FF4802116
:1023B00006E0714502D14FF4800101E04FF08061E9
:1023C0002F4A083A5160C16A3BE04FF0020808FA10
:1023D00004F818EA030F4FF000094FF0010C35D054
:1023E0005FEA827832D50A68920605D40A6822F03C
:1023F0000A020A6080F821C00168A94201D10221C5
:1024000019E0514501D1202115E0B14202D14FF42C
:10241000007110E0B94202D14FF400510BE0594570
:1024200002D14FF4003106E0714502D14FF40011A2
:1024300001E04FF00071124A083A516080F8209094
:10244000816A00291AD0BDE8F05F08470825A54039
:102450001D4213D0120711D50A6822F00E020A603D
:1024600090F84010C26B0CFA01F15160C0F838C00E
:1024700080F821C080F82090016BE2E7BDE8F09F72
:10248000080002401C0002403000024044000240AC
:10249000580002406C00024030B528B302C8134A0D
:1024A00014230A44B2FBF3F29200C263104A82631F
:1024B000022242770B6843F6F0729343D0E900247E
:1024C0002243D0E902452C43224304692243446954
:1024D0002243846922431A430A6000214163012296
:1024E00042770177084630BD012030BDF8FFFDBFBF
:1024F0000000024070B5044690F820000025012835
:102500000CD0012084F8200094F821600020012ED6
:1025100006D084F820000225284670BD022070BD38
:10252000022684F82160A0632068066826F0010670
:1025300006602046FFF77CFEE06A002820680168FC
:1025400002D041F00E0106E021F004010160206894
:10255000016841F00A0101602068016841F0010151
:102560000160D9E770B5044600F0FEF80546601C2E
:1025700002D004480078044400F0F6F8401BA04262
:10258000FAD370BD240000202DE9F84FDFF8A491A4
:10259000002409F1040A0AF1040B23464FF00F0846
:1025A0000BF1040EBEE00127A7403A40BA4272D1B7
:1025B000DFF884C14D68A5EB0C0665452BD00DDC1A
:1025C000032D34D005DC35B3012D19D0022D2FD1C8
:1025D0001BE0112D16D0122D2AD119E0B6F5881F57
:1025E00019D006DCB6F5803F15D0B6F5801F1FD197
:1025F00011E0B6F5001F0ED0B6F5041F18D10AE0A1
:10260000CB6815E0CB681B1D12E0CB6808330FE0E8
:10261000CB680C330CE08B682BB1012B4FF0080317
:1026200003D0476104E0042302E0076100E00023D7
:10263000FF2A01D8064601E000F104064FEA8405AE
:1026400001D9A5F12005376808FA05FC27EA0C072F
:1026500003FA05F547EA050737604D68ED0060D5D8
:10266000364DAE6946F00106AE61AD6924F0030651
:1026700005F001050095324D7719BE68A5072D0FAD
:1026800008FA05FC26EA0C06DFF8B8C0604503D15D
:102690004FF0000C17E044E0DFF8ACC0604502D119
:1026A0004FF0010C0FE0DFF8A4C0604502D14FF0FD
:1026B000020C08E0DFF898C0604502D14FF0030C2F
:1026C00001E04FF0040C0CFA05FC4CEA060CC7F8CC
:1026D00008C04D68D9F80060ED034D4601D516439A
:1026E00000E096432E604D68DAF80060AD03554671
:1026F00001D5164300E096432E604D68DBF800607C
:10270000ED025D4601D5164300E096432E604D680C
:10271000DEF80060AD02754601D5164300E0964331
:102720002E60641C0A6832FA04F57FF43CAFBDE801
:10273000F88F00000004014000001110001002405A
:102740000000014000080140000C01400010014061
:10275000001401408068084000D0012070470AB191
:10276000016170470904FBE7014880687047000079
:10277000240000200248816802781144816070477B
:1027800024000020074810B5016841F010010160E5
:10279000032000F075F80F2000F006F800F024F890
:1027A000002010BD0020024070B50D4D04464FF4CE
:1027B0007A712878B1FBF0F00A490968B1FBF0F0B2
:1027C00000F0EEFA48B9102C07D200222146501E24
:1027D00000F036F800206C6070BD012070BD000074
:1027E00024000020300000200C4808B5816941F029
:1027F00001018161816901F001010091C16941F02C
:102800008051C161C069064900F08050009048685D
:1028100020F0E06040F00070486008BD0010024009
:1028200000000140002809DB00F01F020121914057
:102830004009800000F1E020C0F80011704700005E
:10284000F0B40E4B1B68C3F30223C3F10704042C3E
:1028500000D904241D1D072D01D2002300E0DB1E3A
:10286000012606FA04F56D1E0D409D409E40761E21
:10287000164045EA0601F0BC01F0C2BF0CED00E0D5
:10288000064A00F0070110684FF6FF03184040EABF
:102890000120034908431060704700000CED00E080
:1028A0000000FA052DE9F0470D46040067D0DFF877
:1028B0001881D8F8000000F00700A8420CD2D8F820
:1028C000001021F007012943C8F80010D8F80000D3
:1028D00000F00700A84252D120683C4E810712D573
:1028E000400703D5706840F4E0607060207800070E
:1028F00003D5706840F4605070607068A16820F083
:10290000F000084370602078C00727D06068012875
:1029100010D03168022810D0890700292FDA716899
:1029200021F0030101437160FFF71EFF074641F2EA
:1029300088390CE031688903EFE78901EDE7FFF79B
:1029400013FFC11B494502D90320BDE8F087706819
:10295000616800F00C00B0EB810FF0D1D8F80010E6
:10296000404601F00701A9420BD9016821F0070197
:1029700029430160006800F00700A84201D001204F
:10298000E3E72078400705D57068E16820F4E0604F
:10299000084370602078000706D57068216920F42C
:1029A000605040EAC100706000F038F87168084A71
:1029B000C1F30311515CC84006490860064800682D
:1029C000FFF7F2FE0020C0E70020024000100240A6
:1029D00088720008300000202800002004480549C3
:1029E00000684968044AC1F30221515CC84070473D
:1029F0003000002000100240987200080448054989
:102A000000684968044AC1F3C221515CC84070475C
:102A100030000020001002409872000812A085B01B
:102A20000FC88DE80F0014A0144B0068049059687B
:102A3000134801F00C02042A10D0082A0ED1C1F369
:102A40008342C9031DF802000AD5596804AAC1F3DC
:102A50004041515C0A4A5043B0FBF1F005B0704769
:102A600008494843FAE7000002030405060708097D
:102A70000A0B0C0D0E0F1010010200000010024096
:102A800000127A0000093D002DE9F84F04006FD0D4
:102A90002078BE4DC00747D06868C0F38100012888
:102AA00007D06868C0F38100022809D16868C003B4
:102AB00006D52868800337D560680028E7D033E062
:102AC0006068B0F5803F0BD010B1B0F5A02F11D0E9
:102AD000286820F480302860286820F4802002E0F4
:102AE000286840F480302860606888B1FFF73CFEB9
:102AF000064609E0286840F480202860F0E7FFF7E8
:102B000033FE801B642873D828688003F7D50BE058
:102B1000FFF72AFE064604E0FFF726FE801B642826
:102B2000F1D828688003F7D42078DFF86482800722
:102B30004FF0010A4FF0000939D5686810F00C0F0A
:102B400007D06868C0F38100022809D16868C00313
:102B500006D42868800714D52069012808D110E020
:102B60002069B0B1C8F800A0FFF7FEFD064605E0F9
:102B700007E1FFF7F9FD801B0228C4D82868800709
:102B8000F7D52868616920F0F80040EAC1002860A4
:102B90000DE0C8F80090FFF7E7FD064604E0FFF7F8
:102BA000E3FD801B022823D828688007F7D420780B
:102BB00000072CD57748A169D9B1C0F800A0FFF76C
:102BC000D3FD064604E0FFF7CFFD801B02280FD897
:102BD000686A8007F7D570484FF4FA510068B0FB77
:102BE000F1F0009000BF0098411E0091FAD20EE073
:102BF0007CE0C0F80090FFF7B7FD064604E0FFF761
:102C0000B3FD801B022871D8686A8007F7D420784A
:102C100040075BD5E8690027C00008D4E86940F0A8
:102C20008050E861E869012700F0805000905B481F
:102C30000168C90511D40168834641F480710160BF
:102C4000FFF792FD064604E0FFF78EFD801B642827
:102C50004CD8DBF80000C005F6D5E06801280AD0A2
:102C600008B1052813D0286A20F001002862286ADC
:102C700020F0040002E0286A40F001002862E068C9
:102C800041F2883B88B1FFF76FFD064609E0286AEC
:102C900040F004002862EEE7FFF766FD811B59450E
:102CA0005BD8286A8007F7D50BE0FFF75DFD064685
:102CB00004E0FFF759FD811B59454ED8286A80076B
:102CC000F7D41FB1E86920F08050E861E069A8B34B
:102CD0006968C1F38101022946D00228484606D01E
:102CE000C8F86000FFF740FD044639E035E047468C
:102CF000C8F86000FFF738FD064604E0FFF734FD32
:102D0000801B022829D828688001F7D4206AB0F5F2
:102D1000803F05D16868A16820F4003008436860EE
:102D2000D4E908010843696821F474110843686014
:102D3000C7F860A0FFF718FD044605E023E0FFF7A1
:102D400013FD001B022808D828688001F7D51AE077
:102D5000FFF70AFD001B022802D90320BDE8F88F07
:102D600028688001F4D40EE00128F7D06868226A50
:102D700000F48031914204D1616A00F470108842FD
:102D800001D00120EAE70020E8E70000001002403F
:102D900000004242800442423000002000700040A7
:102DA00010B5401EB0F1807F01D3012010BD4FF05F
:102DB000E02460610F21601701F022FD0020A06176
:102DC00007202061002010BD10B590F83C20012A9A
:102DD00022D0012280F83C20CA688C6822F440721C
:102DE00022434C6822F4806222430C6822F4006281
:102DF00022430C6922F4805222434C6922F400528F
:102E00002243C969002322F480420A4301684A64CC
:102E100080F83C30002010BD022010BD70B590F845
:102E20003C20012A26D0012580F83C50022280F85F
:102E30003D2002685368946823F070060B683343A2
:102E400053600D4B02689A4208D0B2F1804F05D012
:102E50000A4B9A4202D00A4B9A4204D1496824F0A4
:102E600080031943916080F83D50002180F83C10A8
:102E7000084670BD022070BD002C014000040040D7
:102E80000008004010B5040003D094F83D0010B1D4
:102E900007E0012010BD002084F83C00204600F02F
:102EA0001FF8022084F83D00211D206801F05AF926
:102EB000012084F8460084F83E0084F83F0084F83E
:102EC000400084F8410084F8420084F8430084F80C
:102ED000440084F8450084F83D00002010BD000047
:102EE00008B500680649884208D10648816941F45E
:102EF00000618161806900F40060009008BD0000FD
:102F0000002C01400010024070B5044690F83C00CF
:102F1000012817D0012584F83C50022084F83D0098
:102F20002068826822F0770222F47F42826008687B
:102F3000502830D00DDC20284DD005DC98B3102867
:102F40003BD148E0022070BD302844D0402834D125
:102F500039E0602828D0702806D0B0F5805F2CD0EA
:102F6000B0F5005F29D10AE0CB68D1E901212068E2
:102F700001F03BF92068816841F0770109E0CB68F6
:102F8000D1E90121206801F030F92068816841F41D
:102F90008041816011E0CA684968206801F0E0F969
:102FA0005021206807E016E0CA684968206801F0EF
:102FB000E8F96021206801F022F984F83D500020F2
:102FC00084F83C0070BDCA684968206801F0C8F9FF
:102FD00040212068EFE7226801461046EBE7000039
:102FE00000B585B000210091019102910391006824
:102FF0000B49884212D10B48816941F0040181617B
:103000008069694600F0040004904FF470600090FD
:103010000220019003900448FFF7B6FA05B000BD06
:10302000002C0140001002400008014070B5044629
:1030300090F83C000D4601280AD0012084F83C009D
:1030400042B1042A18D0082A2AD00C2A4DD139E0DE
:10305000022070BD206801F0DBF82068816941F032
:10306000080181612068816921F004018161206883
:1030700081692A69114311E0206801F0F5F82068A0
:10308000816941F4006181612068816921F4806176
:103090008161206881692A6941EA0221816124E015
:1030A000206801F00FF92068C16941F00801C16191
:1030B0002068C16921F00401C1612068C1692A69E1
:1030C000114311E0206801F029F92068C16941F439
:1030D0000061C1612068C16921F48061C16120681B
:1030E000C1692A6941EA0221C161002084F83C00DB
:1030F00070BD10B5040003D094F83D0010B107E096
:10310000012010BD002084F83C00204600F01EF88D
:10311000022084F83D00211D206801F023F80120E1
:1031200084F8460084F83E0084F83F0084F84000AC
:1031300084F8410084F8420084F8430084F8440095
:1031400084F8450084F83D00002010BD7047000061
:1031500010B5044649B104290AD008290BD094F8C7
:10316000410001280AD0012010BD94F83E00F8E784
:1031700094F83F00F5E794F84000F2E7022041B3ED
:10318000042929D008292AD084F841000122206886
:1031900001F01EF813492068884203D1426C42F4C2
:1031A000004242642068884208D0B0F1804F05D0C8
:1031B0000D49884202D00D49884204D1816801F04E
:1031C0000701062903D0016841F0010101600020D8
:1031D00010BD84F83E00D9E784F83F00D6E784F8B4
:1031E0004000D3E7002C01400004004000080040EC
:1031F0007047704710B504460068C16821F49071AB
:10320000C1602068416921F001014161206B012802
:1032100004D12068C16821F01001C16020684169B3
:103220004FF020024B064FF000010FD5436923F009
:1032300040034361A06B48B109494163A06BFFF7AC
:1032400033F850B1A06B416B884706E0E18584F804
:103250003E2021632046FFF7CCFF002010BD000078
:1032600075440008704700002DE9F041284E0446DF
:10327000284DD6F8D400A04222D12046FFF7BAFF4D
:1032800056F8D40F806B006840682149C0F1630094
:1032900082B26E31A1F16300AA800C460746FDF7A9
:1032A000A6F8A9882046FDF719F96322214630685F
:1032B00000F01EFAA9883846BDE8F04102F0C8BF08
:1032C0001548844222D12046FFF794FFA06B006886
:1032D00040681249C0F1640082B2AA800C46A1F194
:1032E0006400FDF7C9F8A9882046FDF719F90B48D5
:1032F000642264382146D0F8C80000F0F9F9297931
:10330000BDE8F0410548643802F022BABDE8F0811A
:103310001C0300203400002000020020A400002034
:10332000F8B5026804461068D168536910F00F0FB1
:103330004FF0000553D003F0010601F490773743B6
:103340005FD0C20705D0CA0503D5226C42F0010246
:103350002264420705D5DA0703D0226C42F002024C
:103360002264820705D5DA0703D0226C42F00402FA
:103370002264020707D501F02002324303D0226CF9
:1033800042F008022264226C002A34D0800604D560
:10339000880602D5204601F0B5F820684069216C06
:1033A000C0F38010090700D430B3204601F089F83B
:1033B0002068416949061BD5416921F040014161FE
:1033C000A06BA8B158494163A06BFEF76DFF0028C0
:1033D00011D0A06B416B01B0BDE8F04008478306F7
:1033E0000FD58B060DD52046BDE8F84001F08AB810
:1033F0002046FFF737FFF8BD2046FFF733FF25646F
:10340000F8BD266B2023012E52D1C60650D5CE061C
:103410004ED5106850680090506940062AD5A16BBF
:10342000086840680004000CEAD0A68D8642E7D9FF
:10343000E0858869202818D0D06820F48070D0609A
:103440002068416921F0010141612068416921F052
:103450004001416184F83E3025632068C16821F055
:103460001001C160A06BFEF7FBFEA08DE18D401A3C
:1034700081B219E0A08DE18D401A81B2E08D002863
:10348000BED00029BCD0D06820F49070D0602068F5
:10349000426922F00102426184F83E3025632068CF
:1034A000C26822F01002C2602046FFF7A1FEF8BDFC
:1034B00005062BD50D0629D594F83D002128F6D117
:1034C000A068B0F5805F01D12069B0B1206A411CCD
:1034D0002162216800784860E08C401E0004000CE6
:1034E000E084E4D12068C16821F08001C1602068D7
:1034F000C16841F04001C160F8BD206A0088C0F396
:1035000008005060206A801C2062E5E74006F3D581
:103510004806F1D5D168204621F04001D16084F8F9
:103520003D3000F0C1F9F8BDA743000870B50400B4
:1035300004D094F83D00002510B106E0012070BDD4
:1035400084F83C50204600F023F8242084F83D0005
:103550002068C16821F40051C160204601F02EF8B6
:103560002068016921F4904101612068416921F0DE
:103570002A0141612068C16841F40051C16025649D
:10358000202084F83D0084F83E00002070BD00003B
:10359000F0B585B000250095019502950395044688
:1035A0004C4E01684C48022203238027B14239D196
:1035B000C16941F40031C161C16901F40031049174
:1035C000816941F0040181618069444E00F004008A
:1035D00004900420CDE90002694603933046FEF7CB
:1035E000D3FF0820CDE90005694630460295FEF775
:1035F000CBFF3C4E3A48C6E90005C6E902573561A3
:103600007561B5613046F561FEF746FF08B1FEF71A
:1036100025FEA6630022114626207462FFF710F9EA
:10362000262052E0304EB14251D1C16941F480218F
:10363000C161C16901F480210491816941F00801EF
:1036400081618069694600F0080004903015CDE979
:103650000002264E03933046FEF796FFF014CDE9A4
:103660000005694630460295FEF78EFF1D4E1C4848
:1036700044363C38C6E90005C6E902573561756134
:10368000B5613046F561FEF707FF08B1FEF7E6FDCC
:10369000A6637462134E12488836503801C6102053
:1036A000A1C6104846F8105988307561B561F561BA
:1036B000FEF7F2FE08B1FEF7D1FD66630022114667
:1036C00027207462FFF7BCF82720FFF7ABF805B09E
:1036D000F0BD00000044004000100240000801401E
:1036E0006C0002404402002000480040000C0140F1
:1036F00090F83E30202B0ED159B152B190F83C30A9
:10370000012B08D0012380F83C300023036300F034
:10371000B1BF012070470220704700002DE9F04141
:103720001249884220D1124F57F8D40F806B00689D
:1037300040680F49C0F1630084B26E31A1F16300AB
:1037400022460D460646FCF752FE21462846FCF767
:10375000C5FE632229463868FFF7CAFF2146304676
:10376000BDE8F04102F074BDBDE8F081BC0100206D
:103770001C03002070472DE9F843044690F83D00F3
:103780001F4615460E4620284BD1C6B1BDB194F850
:103790003C00012845D0012084F83C004FF000088F
:1037A000C4F84080212084F83D00FEF7DDFFA584A9
:1037B0008146E584A068B0F5805F03D004E0012075
:1037C000BDE8F883206920B13546002684F83C80A6
:1037D0000EE00025FAE78021204600F085FFA0B921
:1037E000ADB115F8010B21684860E08C401EE08403
:1037F000E08C4B464FF0000200970028EBD14FF0D1
:103800004001204600F070FF30B10320D8E736F8C1
:10381000020BC0F30800E6E7202084F83D000020FA
:10382000CEE70220CCE70000F7B5044690F83D0053
:10383000202831D1019969B362B394F83C00012882
:103840002AD0012084F83C002162A284E284002571
:103850002564212084F83D00636B10489862636BF7
:103860000F48D862636B0F481863606B134645635B
:103870002668606B321DFEF73DFE21686FF0400048
:10388000086084F83C502068416941F08001416142
:103890000020FEBD0120FEBD0220FEBD8B440008BD
:1038A000B9440008B743000870477047FEE70000BE
:1038B00070B501220B4D540221462846FEF74FFFFA
:1038C0000122160231462846FEF749FF0022214612
:1038D0002846FEF744FF31462846BDE870400022E6
:1038E000FEF73DBF000C014070B5094C01221102EA
:1038F0002046FEF734FF6515002229462046FEF7D4
:103900002EFF29462046BDE870400122FEF727BF62
:10391000000C014070B50122064D140221462846D4
:10392000FEF71DFF21462846BDE870400022FEF745
:1039300016BF0000000C0140114808B5416941F074
:10394000010141614069002200F001000090114630
:103950000C20FEF775FF0C20FEF764FF00221146D5
:103960000D20FEF76DFF0D20FEF75CFF00221146D3
:103970001020FEF765FFBDE808401020FEF752BF9B
:10398000001002402DE9F04186B000242E4800943A
:10399000019402940394816941F01001816181696D
:1039A00001F010010491816941F020018161816978
:1039B00001F020010491816941F004018161816974
:1039C00001F004010491816941F00801816180697D
:1039D0001E4F00F008004FF40045049000222946D5
:1039E0003846FEF7BCFEDFF8688001224FF4A6419E
:1039F0004046FEF7B4FE00224FF420414046FEF759
:103A0000AEFE0095022601250396CDE901546946D4
:103A10003846FEF7B9FD4FF47040CDE90005CDE919
:103A2000024669464046FEF7AFFD4FF44070CDE9CF
:103A300000050320CDE9025069464046FEF7A4FD8B
:103A400006B0BDE8F0810000001002400010014007
:103A5000000C014010B596B000240F9410941194FE
:103A6000129413941C2168461494FCF759FD2021EC
:103A700007A8FCF755FD3448324901604721C0E9E9
:103A8000011441F28731C0E9031444618461FFF7F6
:103A9000F9F908B1FEF7E2FB4FF480500F900FA93F
:103AA0002948FFF731FA08B1FEF7D8FB2648FFF79F
:103AB00020FB08B1FEF7D2FB139413A922481494FB
:103AC000FFF7ACF908B1FEF7C9FB6020CDE90004AF
:103AD0000294039404940594002269461A480694BB
:103AE000FFF7A4FA08B1FEF7B9FB042269461648AD
:103AF000FFF79CFA08B1FEF7B1FB082269461248AD
:103B0000FFF794FA08B1FEF7A9FB0C2269460E48AC
:103B1000FFF78CFA08B1FEF7A1FB0794089409940B
:103B20004FF400500A94CDE90B4007A906480E94C3
:103B3000FFF74AF908B1FEF791FB0348FFF750FA87
:103B400016B010BD002C0140740100200C4810B5C7
:103B50000A4901604FF4E1314160002181600C228B
:103B6000C160C0E904128161C161FFF7DFFC002878
:103B700003D0BDE81040FEF771BB10BD004400400B
:103B8000BC0100200C4810B50A4901604FF4E13136
:103B90004160002181600C22C160C0E90412816192
:103BA000C161FFF7C3FC002803D0BDE81040FEF759
:103BB00055BB10BD0048004000020020FEE7000099
:103BC0000449034808600C3103480860704700004E
:103BD0000000204148050020000020C1FEE7000051
:103BE00030B40021084B0A46002003EBC004401CFF
:103BF000C0B262548028F8D3491CC9B20829F3D353
:103C000030BC00F097B80000A0050020CA0801F001
:103C1000070101238B40044901EBC000815C63EA8A
:103C20000101C94381547047A0050020CA0801F072
:103C3000070301219940034B03EBC000835C0B4356
:103C400083547047A005002010B50021AE2000F07D
:103C500009F90021084600F005F90021102000F0C4
:103C600001F90021402000F0FDF80021812000F042
:103C7000F9F80021CF2000F0F5F80021A12000F094
:103C8000F1F80021C82000F0EDF80021A62000F096
:103C9000E9F80021A82000F0E5F800213F2000F01D
:103CA000E1F80021D32000F0DDF80021084600F003
:103CB000D9F80021D52000F0D5F80021802000F0AF
:103CC000D1F80021D92000F0CDF80021F12000F03A
:103CD000C9F80021DA2000F0C5F80021122000F018
:103CE000C1F80021DB2000F0BDF80021402000F0E9
:103CF000B9F80021202000F0B5F80021022000F0E2
:103D0000B1F800218D2000F0ADF80021142000F062
:103D1000A9F80021A42000F0A5F80021A62000F0B9
:103D2000A1F80021AF2000F09DF8BDE81040FFF79A
:103D300057BF000070B5104E002505F1B000C0B2AD
:103D4000002100F08FF80021084600F08BF80021D8
:103D5000102000F087F8002406EBC4000121405D2C
:103D600000F080F8641CE4B2802CF5D36D1CEDB239
:103D7000082DE2D370BD0000A00500202DE9F84F0A
:103D800083461E460F468A46580700D0012000EBA6
:103D9000D60071084843203AC0B202F0FF0900255E
:103DA000009035E00C2E12D0102E14D0182E32D1E7
:103DB0001A4909EBC90001EB80004FF00008445D8F
:103DC0003946200658460AD5FFF730FF09E009EBCF
:103DD00049001349EFE7134901EB0910EDE7FFF73D
:103DE00015FF60067F1C040EFFB2A7EB0A00B0426D
:103DF00005D10BF10100574600F0FF0B06E008F17A
:103E0000010000F0FF08B8F1080FD9D36D1CEDB226
:103E100000988542C6D3BDE8F88F0000047D0008F5
:103E2000A0720008147700082DE9F0411F461546DE
:103E30000E460446C3F180080DE03B46314620465D
:103E4000FFF79CFF04EB5700C4B2A04502DA002440
:103E5000B61CF6B26D1C2A78A2F120005E28ECD9BF
:103E6000BDE8F08170B50C460546FFF721FD7820CE
:103E700000F0DAF8FFF74EFD0CB1402000E0002022
:103E800000F0D2F8FFF746FD284600F0CDF8FFF726
:103E900041FDBDE87040FFF727BD00000548002147
:103EA000C16101620161416181610160C0E902118A
:103EB00070470000F80400202DE9F0471B4C2168F2
:103EC00003F0E0F8814602F02BFFD4E9022302F070
:103ED0002BFAC4E9020105460E464846E16903F0A3
:103EE000DBF80146C4F81C90A06902F0FFFF02F065
:103EF00017FF07468846606902F012FF2A463346DC
:103F000002F0E4FC05460E464946206902F0EEFF49
:103F100002F006FF2A46334602F006FA43463A46C6
:103F200002F002FABDE8F04702F04EBCF8040020AF
:103F30000149886170470000F80400200149486188
:103F400070470000F8040020014908617047000034
:103F5000F80400200149086070470000F8040020C0
:103F600005480021C1610162016141618161016017
:103F7000C0E9021170470000200500202DE9F0473C
:103F80001B4C216803F07EF8814602F0C9FED4E99B
:103F9000022302F0C9F9C4E9020105460E4648466B
:103FA000E16903F079F80146C4F81C90A06902F0B9
:103FB0009DFF02F0B5FE07468846606902F0B0FE3C
:103FC0002A46334602F082FC05460E4649462069E1
:103FD00002F08CFF02F0A4FE2A46334602F0A4F958
:103FE00043463A4602F0A0F9BDE8F04702F0ECBBC8
:103FF000200500200149886170470000200500204D
:10400000014948617047000020050020014908610E
:10401000704700002005002001490860704700003B
:1040200020050020704770472DE9F041134E0546EA
:1040300000244FF400784FF4807700223946304650
:10404000FEF78DFB280601D5012200E00022414643
:104050003046FEF784FB012239463046FEF77FFBEF
:10406000002239463046FEF77AFB6806641C050ECE
:10407000E4B2082CE1D3BDE8F0810000000C01405F
:1040800070B50E4C00252068456329462046FFF791
:104090005FF82068856304212046FFF759F82068FF
:1040A000C56308212046FFF753F8206805642046C1
:1040B000BDE870400C21FFF74BB8000074010020F0
:1040C00070B50E4C00252068456329462046FFF751
:1040D0003FF82068856304212046FFF739F82068FF
:1040E000C56308212046FFF733F8206805642046A1
:1040F000BDE870400C21FFF72BB8000074010020D0
:10410000FEF738BB30B58FB028216846FCF708FAB7
:1041100014210AA8FCF704FA0120010400248DE808
:10412000130004904FF4E010CDE908100225079524
:104130006846FEF7A9FC08B172B6FEE70F20CDE98C
:104140000A054FF48060CDE90C4002210AA80E94C4
:10415000FEF7A8FB002801D072B6FEE70FB030BD15
:1041600070470000F0B50268164C174D174E4FF01F
:104170008047A04205D0B84203D0A84201D0B04247
:1041800003D122F070034A681A43A04205D0B84216
:1041900003D0A84201D0B04203D122F44073CA68D0
:1041A0001A434B6922F080021A4302608A68C26295
:1041B0000A688262A04201D109690163012141615B
:1041C000F0BD0000002C0140000400400008004049
:1041D00010B501F01F010123046A8B409C43046267
:1041E000036A8A401343036210BD10B5846842EA33
:1041F000032224F47F440A432243826010BD826874
:1042000022F070020A4342F007018160704700000B
:1042100030B5026A22F001020262036A42688469D0
:1042200024F073050C682C4323F002058B682B43A4
:104230000C4DA84206D123F00805CB6843EA0503DC
:1042400023F0040307D14D6922F4407245EA0205C8
:104250008A6942EA050242608461496841630362F7
:1042600030BD0000002C014030B5026A22F010027F
:104270000262026A436884690D6824F4E64444EAF1
:1042800005248D6822F0200242EA05120C4DA84256
:1042900006D1CD6822F0800242EA051222F04002E7
:1042A00007D14D6923F4406343EA85038D6943EAEE
:1042B00085034360846149688163026230BD000008
:1042C000002C014030B5026A22F480720262036A57
:1042D0004268C46923F4007324F073050C682C430E
:1042E0008D6843EA05230C4DA84206D1CD6823F41E
:1042F000006343EA052323F4806307D14D6922F468
:10430000405242EA05128D6942EA05124260C461D8
:104310004968C163036230BD002C014030B5026AB8
:1043200022F480520262036A4268C4690D6824F470
:10433000E64444EA05248D6823F4005343EA053338
:10434000064DA84204D14D6922F4804242EA85120A
:104350004260C46149680164036230BD002C0140C1
:1043600010B5046A036A23F001030362836923F032
:10437000F00343EA021324F00A020A438361026253
:1043800010BD10B5036A23F0100303628469036A49
:1043900024F4704444EA023223F0A00343EA0111FA
:1043A0008261016210BD10B5406A0021C185C184DF
:1043B000FEF758FF10BD70B5446A2068406994F854
:1043C0003D10C0F3C0100025212904D118B1E584A7
:1043D000204600F08EF82068406994F83E10C0F343
:1043E0008010222904D118B1E585204600F069F833
:1043F000206C40F0100020642046FEF733FF70BDB3
:1044000010B50146406A0968096889061BD4002175
:10441000C1850168CA6822F48072CA6001684A696D
:1044200022F001024A6101684A6922F040024A61B1
:10443000202180F83E10016B012904D10168CA686F
:1044400022F01002CA60016B012902D0FFF766F961
:1044500010BD818DFEF7CCFE10BD10B5406A016B1A
:10446000012902D0FFF786F910BD818D4908FEF7BA
:10447000BFFE10BD10B5406A0021C185202280F822
:104480003E200163FEF7B5FE10BD10B50146406A3F
:104490000968096889060CD40021C18401684A6949
:1044A00022F080024A610068C16841F04001C160A9
:1044B00010BDFFF7F9F910BD10B5406AFFF7F5F927
:1044C00010BD0168CA6822F49072CA6001684A6926
:1044D00022F001024A61016B012904D10168CA6816
:1044E00022F01002CA60202180F83E1000210163F2
:1044F00070470168CA6822F0C002CA60202180F8B3
:104500003D10704708B590F83E10222901D00220D6
:1045100008BD81684FF48053994201D1026922B1EC
:10452000826A99421BD049B10AE00268816A5268E6
:10453000C2F308020A80816A891C08E0016971B12E
:104540000168496801F07F011170816A491C81622C
:10455000C18D491E0904090CC18503D019E0016809
:104560004968F1E70168CA6822F02002CA60016860
:10457000CA6822F48072CA6001684A6922F00102A6
:104580004A61202180F83E10016B012903D0FFF71A
:10459000C5F8002008BD002101630168CA6822F047
:1045A0001002CA6001680A68D20602D50A68496822
:1045B0000091818DFEF71CFEEBE7000070B504460C
:1045C00000680169E26821F4405111430161A1686A
:1045D00020690143606901432068C26841F20C63AD
:1045E0009A430A43C26020684169A26921F440717C
:1045F000114341611E492068884202D1FEF7FEF94D
:1046000001E0FEF7EBF900EBC00101EB001160687F
:1046100064228000B1FBF0F3B3FBF2F36FF01806F5
:104620007343B1FBF0F5B1FBF0F605EB83053223E4
:1046300003EB0515B5FBF2F5B6FBF2F605F0F00558
:1046400005EB0615B1FBF0F6B1FBF0F0B0FBF2F0B4
:104650006FF01801484306EB800003EB0010B0FB3D
:10466000F2F0216800F00F002844886070BD00005F
:104670000038014037B582B01346039A82628385C1
:10468000002504460564222084F83E00A16B1348EF
:104690008862A16B1248C862A16B12480863A06BC4
:1046A00045632168A06B091DFDF724FF20680168A0
:1046B0004168009184F83C50C16841F48071C16048
:1046C0002068416941F0010141612068416941F080
:1046D0004001416105B0002030BD000001440008E8
:1046E0005B440008B74300082DE9F0411E46174619
:1046F00088460446069D1CE0681C1AD025B1FEF7CA
:1047000033F8801BA84214D92068C16821F4D07105
:10471000C1602068416921F001014161202084F8D5
:104720003D0084F83E00002084F83C000320BDE8F2
:10473000F0812068016838EA010004D00020B84206
:10474000DAD00020F3E70120F9E7000008B50948B6
:10475000FEF7E6FD074800680168C943C90607D4AB
:10476000016840680090BDE808400248FEF77CBD43
:1047700008BD0000BC01002008B50948FEF7D0FDC7
:10478000074800680168C943C90607D40168406842
:104790000090BDE808400248FEF766BD08BD000075
:1047A00000020020FEE7000010B502F0B9FA064A48
:1047B000064B02F08BF8064A064B01F0B5FDBDE84A
:1047C000104001F07FBD000005F27E185342E43F27
:1047D0003D2CD49AE61DD3BF490050EAC12018BF32
:1047E00004204A0D18BF40F0010040F2FF72B2EB06
:1047F000515F08BF40F00200012808BF0520704744
:104800000907090E002804DB00F1E02080F80014FD
:10481000704700F00F0000F1E02080F8141D704791
:104820002DE9F0414F1E00EBC7010446D1E900011C
:1048300015461E4637F006020DD02A46334602F0D2
:1048400045F87F1E04EBC703D3E9002301F06CFD9C
:1048500037F00602F1D1022F25D0042F13D0062FF6
:1048600018BFBDE8F0812A46334602F02FF8D4E99C
:104870000A2301F059FD2A46334602F027F8D4E90D
:10488000082301F051FD2A46334602F01FF8D4E90F
:10489000062301F049FD2A46334602F017F8D4E911
:1048A000042301F041FD2A46334602F00FF8D4E913
:1048B000022301F039FD2A46334602F007F8D4E915
:1048C0000023BDE8F04101F02FBD012202F090BCB1
:1048D00040F2013200204FF0E04102F089BC0000BC
:1048E000024A0020110702F083BC000001FDFFFF17
:1048F00010B50446D1E9000100F002F8206010BDB7
:10490000F8B504460D466A4600F08EFB00987E30EE
:10491000009000281EDC002213462046294601F0A4
:1049200017FF17D0002140F608004FF000000646A0
:104930002046294601F0C6FC044640F6080006EA77
:1049400000014FF0000034F0004004BF0220FBF7EC
:1049500068FE29E00098FF2828DB002108464FF078
:10496000000000F44006002213462046294602F0CB
:10497000ABF88CBF002501250220FBF752FE4FF05B
:10498000FF4446B1002D0CBF4FF400004FF48000EF
:10499000B04218BF084C042108464FF00000002D1B
:1049A00004BF84F00040F8BD2046F8BD20462946EB
:1049B000BDE8F84001F086BCFFFF7F7F704710B56F
:1049C00004460A46D4E90003194600F0D9FBC4E9BD
:1049D000000110BD30380A2801D2012070470020A4
:1049E000704730B583B00446FBF716FE054600203D
:1049F000CDE90000024621466846FCF7BDF828468E
:104A0000FBF70FFEDDE9000103B030BD0122D10349
:104A10000148FDF7A4BE00000010014000224FF441
:104A200000410148FDF79BBE001001401FB5CDE9D4
:104A300000120321CDE902316946FDF7A5FD1FBD36
:104A400070B50D4604461646D4E9000102232A46F5
:104A5000FFF7ECFFD4E9020102232A46FFF7E6FF45
:104A6000D4E9040102232A46FFF7E0FFD4E9060156
:104A700002232A46FFF7DAFFD4E90801022332466F
:104A8000FFF7D4FFD4E90A0102233246FFF7CEFF35
:104A9000D4E90C0102233246FFF7C8FFD4E90E0126
:104AA00002233246FFF7C2FF012D2FD1A088012239
:104AB00081B22068FDF753FEA089012281B2A0686F
:104AC000FDF74DFEA08A012281B22069FDF747FE65
:104AD000A08B012281B2A069FDF741FEA08C0022CB
:104AE00081B2206AFDF73BFEA08D002281B2A06A50
:104AF000FDF735FEA08E002281B2206BFDF72FFE60
:104B0000A08F002281B2A06BFDF729FE012E31D1CA
:104B1000A08C012281B2206AFDF721FEA08D012226
:104B200081B2A06AFDF71BFEA08E012281B2206B2C
:104B3000FDF715FEA08F012281B2A06BFDF70FFEDD
:104B4000A088002281B22068FDF709FEA08900221A
:104B500081B2A068FDF703FEA08A002281B220691D
:104B6000FDF7FDFDA08B002281B2A069BDE8704079
:104B7000FDF7F5BD70BD00002DE9F35F0646019815
:104B80000568284600F046FF4FF0FF386FF02F070A
:104B900001280AD0284600F03DFF02284AD046F8F6
:104BA000048B86E80700BDE8FC9F4FF0000A5446DE
:104BB0000122514613E0232802D02D2802D002E022
:104BC000641C0FE04246A0F13003092B04D801EB2E
:104BD000810107EB41010144641C142C02DA285DB9
:104BE0000028E8D15143884648A0FFF7E7FE01229C
:104BF00000210BE023280ED0A0F13003092B04D8AC
:104C000001EB810107EB41010144641C142C02DA21
:104C1000285D0028EED151430C4640A0FFF7CEFEA0
:104C2000019800F0F0FAC6F800A0C6F80C90C6E9AA
:104C30000184B8E74FF0010B00245A46214615E0E5
:104C4000402804D0232802D02D2802D002E0641C82
:104C50000FE04246A0F13003092B04D801EB810399
:104C600007EB43010144641C142C02DA285D002880
:104C7000E6D1514389462DA0FFF7A0FE0122002175
:104C800013E0402804D0232802D02D2802D002E0CF
:104C9000641C0FE04246A0F13003092B04D801EB5D
:104CA000810107EB41010144641C142C02DA285DE8
:104CB0000028E6D151438A4620A0FFF77FFE01225B
:104CC0004FF000080EE0402811D023280FD0A0F1AB
:104CD0003001092905D808EB880107EB410100EBF9
:104CE0000108641C142C02DA285D0028EBD108FBB3
:104CF00002F1884615A0FFF761FE019800F083FAE3
:104D0000C6E902A8C6E900B94DE70000636F6E6608
:104D100069672061203D2025640A0000636F6E668C
:104D200069672062203D2025640A0000636F6E667B
:104D300069672063203D2025640A0000636F6E666A
:104D400069672064203D2025640A0000636F6E6659
:104D500069672065203D2025640A000010B580F0B9
:104D6000004001F0DDFF094A094B01F099FB00F01A
:104D700019F8084A084B01F0A9FD084A084B01F050
:104D8000D3FABDE8104001F09DBA0000D811994552
:104D9000842070C0AF32758D448179402C58BB9C03
:104DA000958079C02DE9F04D894BCE0F21F0004759
:104DB00084B005460C469F4230D38648874211D3C3
:104DC000C7F31300284305D004B02846BDE8F04DD2
:104DD000FFF77BBD002E1ABF00200146284604B015
:104DE000BDE8F08D7C4A284601F06EFE07D2022015
:104DF000FBF717FC04B0BDE8F04DFFF769BD774A3B
:104E0000774B2846214601F025FD07D20220FBF70B
:104E100008FC04B0BDE8F04DFFF762BD7148B84230
:104E200048D27148874215D27048784400EBC600DA
:104E30002146D0E90023284601F088FECDE9000193
:104E40006B48784400EBC600D0E900ABC6F1010026
:104E5000861B26E0674A684B2846214601F036FD4E
:104E6000664A7A4402EBC603D3E9002301F05CFAF8
:104E700001F0AAFC064601F0D6FC07468846604AC7
:104E8000604B01F023FD2A46234601F053FECDE995
:104E900000015D4A5D4B3846414601F017FD8246F0
:104EA0008B46DDE9000152465B4601F04FFE0546A8
:104EB0000C4618E05648874214D2564A564B2846AC
:104EC000214601F031FA554E0022334601F0FCFD37
:104ED00008D204B0334628462146BDE8F04D0022F2
:104EE00001F022BA00262A4623461046194601F050
:104EF000EDFC804602464A480F460B4605217844A1
:104F0000FFF78EFC42463B4601F0E0FC2A46234672
:104F100001F010FE07468846E6B302460B46002025
:104F20004FF0804101F012FECDE902013A464346BE
:104F30002846214601F0CAFCDDE9022301F0B0FA5F
:104F400052465B4601F0F6FDDDE9002301F0FEFD6F
:104F50000022324B01F0EEFD6FF47F729642A2BF49
:104F600001EB065104B0BDE8F08D4FF07A5202EB30
:104F7000065211442B4A02F03BF904460D46FFF756
:104F80002BFC042808BFFFF7ABFC204604B02946E1
:104F9000BDE8F08DFFE700224FF0804301F0D6FD21
:104FA00082460E463A4643462846214601F08EFC8C
:104FB0005246334601F074FA2A46234601F0C6FDF4
:104FC00004B00022BDE8F04D144B01F0B3BD000069
:104FD000422E86400000F07FEF39FAFE51302DD589
:104FE000104987C0422ED63FB2A2F03F423C00009B
:104FF0003A3C0000FE822B654715F73FFA3B000064
:105000000000E0FE422EE63F763C7935EF39EA3D7E
:105010000000303E9C7500883CE4377E0000F03F85
:105020008E3B000018FCFFFF10B5144600222260E2
:10503000114A21F000439342A8BF10BD53EA000279
:1050400008BF10BDB3F5801FA8BF226807DA36225B
:1050500002F0CEF86FF0350221F000432260DFF855
:105060001CC06FF31E510CEB23531A4441F0FF5147
:1050700041F00051226010BD0000F07F02FCFFFFF4
:1050800070B500246420FDF76DFA40F6B8352B4664
:10509000032214491448FEF76EFB4FF47A7630462B
:1050A000FDF760FA0F492B460322C91C0E48FEF794
:1050B00062FB3046FDF756FA6420FDF753FA0B4DBC
:1050C0000B4E641CE4B26420FDF74CFAD5F80801DD
:1050D000314620F0004001F0D5FE01D3642CF0D918
:1050E00070BD00003A000020BC0100201C0300201D
:1050F000CDCC4C3D2DE9F04FDDE90DB4DDE9139544
:10510000DDE90FC7DDE9098ADDF830E0129EC0F85D
:1051100018E0876206638563046280E80E050B99D8
:10512000C0F824C0C0F81CB041611199C0F8349097
:10513000C1621599C163BDE8F08F000010B58DB054
:105140000C484023CDE909038021CDE90B01102251
:10515000CDE905022024CDE907040749CDE9011472
:105160000092CDE903130B4608220448FFF7C2FF63
:105170000DB010BD00080140000C0140600500208A
:105180002DE9F04106460C4640F2FF75174635EA18
:1051900014502BD000221346304601F0D9FA25D006
:1051A0003A463046214602F023F806460C4635EAD8
:1051B000145010D000221346304601F0C9FA15D120
:1051C0000220FBF72EFAFFF78BFB0A46214662F31B
:1051D0001E01BDE8F0810220FBF723FAFFF778FB00
:1051E0000A46214662F31E01BDE8F08130462146A1
:1051F000BDE8F081D0E9003203B912B151614160DC
:1052000070470160FBE710B50446D4E9000188420D
:1052100006D130B1FBF721F800202060606010BD9E
:1052200008B90029FBD041692160BDE81040FBF7B7
:1052300014B80000FDF7A6FAFEF764FFFEF7A2FB24
:10524000FEF708FCFEF778FBFEF780FCFEF79AFC01
:10525000FFF7DCFBFEF7F8FC2A492B4800F0F8F9D1
:10526000294800F0FFF9FFF70BFFFFF7D7FBFEF728
:10527000A7FCFFF763FF00F039FAFEF7B1FC0A2143
:10528000102322A20846FEF7CFFDFEF753FD64204F
:10529000FDF768F9FFF7BAFBFEF7F2FE1E4C032597
:1052A0001E4800F03DF8A07000B12070313805288C
:1052B00024D2DFE800F003080D1114000120607013
:1052C00000F0BCFB0EE00220607000F053FC09E02F
:1052D000657000F0ABFC05E0042060700EE06570C6
:1052E00000F0AEFD607848B9FEF77AFC0A21102381
:1052F00006A20846FEF798FDFEF71CFD9620FDF776
:1053000031F9CDE7BC0100201C03002053656C651A
:105310006374204974656D00000000206005002062
:1053200010B5044600220121FFF78AFBA08C81B250
:10533000206AFDF70FFA012815D0A08D81B2A06A6E
:10534000FDF708FA01286AD0A08E81B2206BFDF724
:1053500001FA01287DD0A08F81B2A06BFDF7FAF988
:10536000012877D070E10F20FDF7FCF8A08C81B206
:10537000206AFDF7EFF90128F4D10122002120462F
:10538000FFF75EFBA08881B22068FDF7E3F90128F2
:1053900015D0A08981B2A068FDF7DCF901281AD0E8
:1053A000A08A81B22069FDF7D5F901281FD0A08B12
:1053B00081B2A069FDF7CEF9012824D044E10F2085
:1053C000FDF7D0F8A08881B22068FDF7C3F9012865
:1053D000C8D1312010BD0F20FDF7C4F8A08981B2DB
:1053E000A068FDF7B7F90128BCD1342010BD0F200B
:1053F000FDF7B8F8A08A81B22069FDF7ABF9012862
:10540000B0D1372010BD0F20FDF7ACF8A08B81B2D2
:10541000A069FDF79FF90128A4D12C2010BD0F2011
:10542000FDF7A0F8A08D81B2A06AFDF793F90128DD
:1054300098D1012200212046FFF702FBA08881B20B
:105440002068FDF787F9012818D0A08981B2A068EB
:1054500001E043E09EE0FDF77DF901281AD0A08A23
:1054600081B22069FDF776F901281FD0A08B81B2A7
:10547000A069FDF76FF9012824D0E5E00F20FDF7C2
:1054800071F8A08881B22068FDF764F9012895D1F0
:10549000322010BD0F20FDF765F8A08981B2A06809
:1054A000FDF758F9012889D1352010BD0F20FDF7EF
:1054B00059F8A08A81B22069FDF74CF90128DCD1A6
:1054C000382010BD0F20FDF74DF8A08B81B2A069E8
:1054D000FDF740F901282CD1232010BD0F20FDF746
:1054E00041F8A08E81B2206BFDF734F9012820D15C
:1054F000012200212046FFF7A3FAA08881B220688C
:10550000FDF728F9012815D0A08981B2A068FDF720
:1055100021F901281AD0A08A81B22069FDF71AF971
:1055200001281FD0A08B81B2A069FDF713F90128D3
:1055300024D089E00F20FDF715F8A08881B22068FB
:10554000FDF708F901287FD1332010BD0F20FDF7AA
:1055500009F8A08981B2A068FDF7FCF8012873D191
:10556000362010BD0F20FCF7FDFFA08A81B2206914
:10557000FDF7F0F8012867D1392010BD0F20FCF7A6
:10558000F1FFA08B81B2A069FDF7E4F801285BD19F
:105590003B2010BD0F20FCF7E5FFA08F81B2A06B70
:1055A000FDF7D8F801284FD1012200212046FFF74E
:1055B00047FAA08881B22068FDF7CCF8012815D001
:1055C000A08981B2A068FDF7C5F801281AD0A08A89
:1055D00081B22069FDF7BEF801281FD0A08B81B2EF
:1055E000A069FDF7B7F8012824D02DE00F20FCF7C3
:1055F000B9FFA08881B22068FDF7ACF8012823D15B
:10560000252010BD0F20FCF7ADFFA08981B2A06856
:10561000FDF7A0F8012817D12D2010BD0F20FCF7B1
:10562000A1FFA08A81B22069FDF794F801280BD16F
:10563000302010BD0F20FCF795FFA08B81B2A06930
:10564000FDF788F8012801D0002010BD262010BDEC
:1056500070B50C4605464FF4D071FAF761FFC5F8F6
:10566000D44070BD38B5044654F8D40FFDF7C2FDE0
:1056700020680068016841680091C16841F010012C
:10568000C160A4F166012068BDE838406322FEF7DE
:105690002FB80000144991F8CC20BAB191F8CC2071
:1056A000012A12D191F8CD3001F1CE02985491F82F
:1056B000CD20521C81F8CD20262810D091F8CD00A5
:1056C000642802D3002081F8CC0070472528FCD143
:1056D000012001F8CC0F25228A7048707047022003
:1056E00081F8CC0000F042B84000002010B54FF423
:1056F0009A710448FAF714FF02490348C1F8C80038
:1057000010BD0000400000200002002038B50F4C02
:10571000002084F8CC0004F1CE006521C834FAF7EB
:10572000DDFE2068FDF766FD2068006801684168BD
:105730000091C16841F01001C160A4F164012068CA
:10574000BDE838406422FDF7D3BF000040000020D0
:1057500070B50D460646002404E0305DFFF79AFF61
:10576000641CE4B2AC42F8D370BD000038B5074CFD
:1057700054F8C80FFDF73EFD2068006801684168D5
:105780000091C16821F01001C16038BD40000020C7
:1057900010B50C4A00240029136803DD5963116811
:1057A0008C6303E05C6313684942996311680028C5
:1057B00003DDC8631068046410BDCC631168404207
:1057C000086410BD740100202DE9F0410546082051
:1057D000FAF714FD00270760804647602846FAF76D
:1057E000E7FD014619A0FFF7E9F82878252807D139
:1057F0002846FAF7DDFD284410F8010C262802D0CF
:105800000020BDE8F081012418E01820FAF7F6FC2A
:10581000064614214761FAF783FE0020295D3B29E3
:1058200004D03154401C641C1428F7DB3146404638
:10583000FFF7E0FC285D3B28E7D1641C2846FAF717
:10584000B7FD401EA042F5D84046DAE725640A00BD
:105850002DE9F04188B01D4616460F4680460024CB
:105860002CE0621C18A16846FAF71EFD102319A24D
:105870001A210A20FEF7D8FA10236A461A210A20B4
:10588000FEF7D2FAFEF756FA0CB9012D07D0002226
:105890006421404600F02AF8012802D003E00122EA
:1058A000F6E7FFF7B3F800226421384600F01EF84F
:1058B000012801D1FFF7AAF8641CE4B2B442D0D3A6
:1058C00008B0BDE8F0810000526570656174202564
:1058D00064000000202020202020202020202020E4
:1058E0002020202020202020000000002DE9F74F5C
:1058F000002788463C46012A55D00098FEF72AFB2F
:105900000098FEF789FB41F28839C9F1000A3B4D46
:10591000DFF8ECB0FCF728FFC01B0528FAD3FCF732
:1059200023FF07463748D0F808116960D0F808010E
:105930005E46CBF804006868FEF7BEFAA86070689F
:10594000FEF71CFBB060A9684846814200DDA860F4
:10595000AA6851468A4200DAA960B268824200DD34
:10596000B060B068884200DAB160B168A868FFF73B
:105970000FFF0098FFF7F2F906466868FFF7EEF9A7
:10598000314601F089FB20F000404FF0804101F0EA
:1059900079FA2FD244B3FCF7E7FE011B414526D329
:1059A0000120BDE8FE8FFEF779FA0098FEF7D2FAE3
:1059B000154D2846FEF7C8FA144E3046FEF7BEFADB
:1059C000DFF84C904846FEF7B3FAFEF7C9FA0098A4
:1059D000FEF722FB2846FEF719FB3046FEF710FBC8
:1059E0004846FEF707FB8EE7FCF7BEFE0446FFF7CE
:1059F00015F88FE70024FFF709F88BE7480500202A
:105A0000540500201C03002074D155416666A63E53
:105A100074D1554070B5002506462C4607E0315D2F
:105A20003046232901D0402900D16D1C641CFAF7AF
:105A3000BFFC401EA042F2D8284670BDFEB500252E
:105A4000FEF7CEF80A21102339A20846FEF7ECF93A
:105A5000FEF770F90026394F0096019602963848F5
:105A6000FFF75EFC04466420FCF77CFD262C35D055
:105A7000302C18D0312C16D0322C14D0332C12D01C
:105A8000342C10D0352C0ED0362C0CD0372C0AD01C
:105A9000382C08D0392C06D02D2C04D03B2CDED14C
:105AA000FEF70EFB41E00DF805406D1CEDB20A2D2E
:105AB0000AD3102323A21A210A20FEF7B5F90025E4
:105AC000009601960296CAE70A2000EB0510C0B2C4
:105AD000102322461A21FEF751F915E06846FEF719
